:0300000002085E95
:0C085E00787FE4F6D8FD75814B0208A5F8
:04098D007FBFDFEF5A
:10092E000D13FC60DAF266B6BEE0FEF60200DE07DC
:10093E000CFFFEFDFBF7EFDF042C000000000408A7
:10094E00000000000420000000000434000000003D
:10059A00E47533E7753203F531F530F527F526F5BD
:1005AA0025F524120733E47FE77E03FDFCAB33AA6B
:1005BA0032A931A830C31204486030E47F0AFEFD34
:1005CA00FCAB27AA26A925A8241203F9EF2533F59F
:1005DA0027EE3532F526ED3531F525EC3530F524A3
:1005EA00E47533E7753203F531F530E47F1FFEFD1C
:1005FA00FCAB2FAA2EA92DA82CC3120448602AE40A
:10060A007F20FEFDFCA82CC3120448601CE47F2155
:10061A00FEFDFCA82CC3120448600EE47F22FEFDF6
:10062A00FCA82CC31204487029852F37852E3685DD
:10063A002D35852C34852723852622852521852459
:10064A0020E4F527F526F525F524F52FF52EF52DC9
:10065A00F52CE47F1EFEFDFCAB0BAA0AA909A8082B
:10066A00C31204486003020710AC34AD35AE36AF8E
:10067A0037120484069A0000001F06B40000002006
:10068A0006CF0000002106E400000022000006FF59
:10069A00E5232527F527E5223526F526E521352503
:1006AA00F525E5203524F524804BC3E5239527F568
:1006BA0027E5229526F526E5219525F525E52095B8
:1006CA0024F5248030AF27AE26AD25AC24AB23AA6F
:1006DA0022A921A8201203F98013AB27AA26A9254B
:1006EA00A824AF23AE22AD21AC201208EA8F278EB0
:1006FA00268D258C24E4F537F536F535F534F50BDA
:10070A00F50AF509F508AF27AE26AD25AC24120087
:10071A0003E47F28FEFDFCAB3BAA3AA939A838C3FB
:09072A0012044860030205AD222F
:10073300783C7C007D007BFF7A09798D7E007F0405
:100743001203D3E4F52BF52AF529F528E47F04FEFB
:10075300FDFCAB2BAA2AA929A828C31204484003ED
:1007630002085D743C252BF8E6F580658070030272
:1007730008417F0A7E00120963743C252BF8E66565
:10078300807003020838AF80EF12045E080B77080D
:10079300177B08227D07D57E07C3B707C9BB07CFE1
:1007A300BD07EDBE07DBD707E1DB07E7DD0805DEA5
:1007B30007F3E707F9EB07FFED082EEE0000083813
:1007C300E47533018051E4753302804BE4753303E0
:1007D3008045E4752F1F8057E47533048039E47531
:1007E30033058033E4753306802DE4752F20803F75
:1007F300E47533078021E4753308801BE4753309FE
:100803008015E4752F218027E4753B28F53AF539E7
:10081300F5388021E4F533F532F531F5308016E40F
:10082300750B1EF50AF509F508800AE4752F22F504
:100833002EF52DF52C743C252BF8E6B580F7E4FA5C
:10084300F9F8E52B2401F52BEA352AF52AE93529B0
:0A085300F529E83528F52802074FC3
:01085D002278
:080003008F3F8E3E8D3D8C3CC9
:10000B00E4F540F5417F3F7E427D0FFCAB3FAA3EBE
:10001B00A93DA83CD312044850107F617E797DFE28
:10002B007CFFA83CC3120448502D7544007545064F
:10003B00740C2545F8E6F5A0851D9012095F120991
:10004B005FE545154570021544D3E5459400E5443D
:10005B006480948050DA227F3F7E427D0F7C00AB20
:10006B003FAA3EA93DA83CD3120448400302030219
:10007B007F617E797DFE7CFFA83CC3120448500350
:10008B00020302AF3FAE3EAD3DAC3C1209858F493A
:10009B008E488D478C46E47F09FEFDFCAB3FAA3EA4
:1000AB00A93DA83CD3120448500FAC3CEC3340099B
:1000BB00754200754301020282E47F63FEFDFCABD7
:1000CB003FAA3EA93DA83CD31204485017E47F0A2F
:1000DB00FEFDFCA83CC31204484009754200754361
:1000EB0002020282E47FE77E03FDFCAB3FAA3EA93E
:1000FB003DA83CD31204485017E47F64FEFDFCA8D6
:10010B003CC3120448400975420075430302028246
:10011B00E47F0F7E27FDFCAB3FAA3EA93DA83CD355
:10012B001204485018E47FE87E03FDFCA83CC31280
:10013B00044840097542007543040202827F9F7E8A
:10014B00867D017C00AB3FAA3EA93DA83CD312049F
:10015B00485018E47F107E27FDFCA83CC3120448CE
:10016B0040097542007543050202827F3F7E427D46
:10017B000F7C00AB3FAA3EA93DA83CD312044850CC
:10018B00197FA07E867D017C00A83CC312044840E9
:10019B0009754200754306020282AC3CEC33501DDC
:1001AB0074FF7FF6FEFDFCAB3FAA3EA93DA83C12B7
:1001BB000448400975420075430102027C74FF7FBD
:1001CB00F6FEFDFCAB3FAA3EA93DA83CD31204486A
:1001DB00501874FF7F9DFEFDFCA83CC312044840E1
:1001EB000975420075430202027C74FF7F9CFEFD81
:1001FB00FCAB3FAA3EA93DA83CD312044850187F44
:10020B00197EFC7DFF7CFFA83CC312044840087597
:10021B004200754303805A7F187EFC7DFF7CFFAB49
:10022B003FAA3EA93DA83CD312044850187FF17E4B
:10023B00D87DFF7CFFA83CC31204484008754200E0
:10024B00754304802C7FF07ED87DFF7CFFAB3FAAEB
:10025B003EA93DA83CD3120448501C7F617E797D9A
:10026B00FE7CFFA83CC3120448400C75420075434A
:10027B000575A0FE759002754400754506C374069E
:10028B009543FFE49542FED3E5459FEE6480F8E588
:10029B00446480984061AD3DAC3CEC33500975A093
:1002AB00FE75900212095F12095F851E90850CA0E6
:1002BB0012095F740C2545F8E6F5A0E47B0AFAF900
:1002CB00F8AF49AE48AD47AC461208EA74132BF8A9
:1002DB00E6F590AF49AE48AD47AC46E47B0AFAF978
:1002EB00F81208EA8F498E488D478C46E54515452F
:0702FB0070021544020288A5
:0103020022D8
:04095F007F017E0096
:10096300C3E54B9FE54A9E5018E4FCFD0DBD000115
:100973000CED647B4C70F5054BE54B70E3054A8049
:01098300DF94
:010984002250
:10086A0002059AE493A3F8E493A34003F68001F205
:10087A0008DFF48029E493A3F85407240CC8C3338F
:10088A00C4540F4420C8834004F456800146F6DF5E
:10089A00E4800B010204081020408090092EE47EB7
:1008AA00019360BCA3FF543F30E509541FFEE49353
:1008BA00A360010ECF54C025E060A840B8E493A31A
:1008CA00FAE493A3F8E493A3C8C582C8CAC583CA45
:1008DA00F0A3C8C582C8CAC583CADFE9DEE780BEFD
:01095E000098
:10030300E709F608DFFA8046E709F208DFFA803EDC
:1003130088828C83E709F0A3DFFA8032E309F608C9
:10032300DFFA8078E309F208DFFA807088828C8331
:10033300E309F0A3DFFA806489828A83E0A3F608E5
:10034300DFFA805889828A83E0A3F208DFFA804CBF
:1003530080D280FA80C680D4806980F28033801096
:1003630080A680EA809A80A880DA80E280CA8033FF
:1003730089828A83ECFAE493A3C8C582C8CCC58377
:10038300CCF0A3C8C582C8CCC583CCDFE9DEE78047
:100393000D89828A83E493A3F608DFF9ECFAA9F0C6
:1003A300EDFB2289828A83ECFAE0A3C8C582C8CC1C
:1003B300C583CCF0A3C8C582C8CCC583CCDFEADE35
:1003C300E880DB89828A83E493A3F208DFF980CC97
:1003D30088F0EF60010E4E60C388F0ED2402B40490
:1003E3000050B9F582EB2402B4040050AF23234537
:0603F30082239003537306
:1003F900E88FF0A4CC8BF0A42CFCE98EF0A42CFCA3
:100409008AF0EDA42CFCEA8EF0A4CDA8F08BF0A420
:100419002DCC3825F0FDE98FF0A42CCD35F0FCEB7F
:100429008EF0A4FEA9F0EB8FF0A4CFC5F02ECD3944
:0F043900FEE43CFCEAA42DCE35F0FDE43CFC22B1
:1008EA00C2D5E830E70FB2D5E4C39BFBE49AFAE439
:1008FA0099F9E498F8EC30E717B2D51209201204F6
:10090A00FAE4C39BFBE49AFAE499F9E498F88003C1
:10091A001204FA30D50DE4C39FFFE49EFEE49DFD68
:04092A00E49CFC222B
:10044800EB9FF5F0EA9E42F0E99D42F0EC6480C82B
:0604580064809845F022CB
:10045E00D083D082F8E4937012740193700DA3A32D
:10046E0093F8740193F5828883E473740293686041
:06047E00EFA3A3A380DF41
:10048400D083D082E4937012740193700DA3A3936C
:10049400F8740193F5828883E4737402936C701288
:1004A4007403936D700C7404936E70067405936FEB
:0A04B40060DDA3A3A3A3A3A380CAE5
:08098500EC30E70312058C229F
:1004BE0075F008758200EF2FFFEE33FECD33CDCCF5
:1004CE0033CCC58233C5829BED9AEC99E582984078
:1004DE000CF582EE9BFEED9AFDEC99FC0FD5F0D655
:1004EE00E4CEFBE4CDFAE4CCF9A88222B800C1B97F
:1004FE000059BA002DEC8BF084CFCECDFCE5F0CBBD
:10050E00F97818EF2FFFEE33FEED33FDEC33FCEBF5
:10051E0033FB10D703994004EB99FB0FD8E5E4F9B0
:10052E00FA227818EF2FFFEE33FEED33FDEC33FC9D
:10053E00C933C910D7059BE99A4007EC9BFCE99A91
:10054E00F90FD8E0E4C9FAE4CCFB2275F010EF2FD6
:10055E00FFEE33FEED33FDCC33CCC833C810D707D6
:10056E009BEC9AE899400AED9BFDEC9AFCE899F811
:0E057E000FD5F0DAE4CDFBE4CCFAE4C8F922A4
:0E058C00C3E49FFFE49EFEE49DFDE49CFC2280
:00000001FF
