:03000000020737BD
:0C073700787FE4F6D8FD75814902077E4A
:040864007FBFDFEF84
:100807000D13FC60DAF266B6BEE0FEF60200DE0704
:100817000CFFFEFDFBF7EFDF042C000000000408CF
:100827000000000004200000000004340000000065
:10046B00E47533E7753203F531F530F527F526F5ED
:10047B0025F524120604E47FE77E03FDFCAB33AACB
:10048B0032A931A830C31201486030E47F0AFEFD67
:10049B00FCAB27AA26A925A8241200F9EF2533F5D2
:1004AB0027EE3532F526ED3531F525EC3530F524D3
:1004BB00E47533E7753203F531F530E47F1FFEFD4C
:1004CB00FCAB2FAA2EA92DA82CC3120148602AE43D
:1004DB007F20FEFDFCA82CC3120148601CE47F2189
:1004EB00FEFDFCA82CC3120148600EE47F22FEFD2A
:1004FB00FCA82CC31201487029852F37852E368511
:10050B002D35852C34852723852622852521852489
:10051B0020E4F527F526F525F524F52FF52EF52DF9
:10052B00F52CE47F1EFEFDFCAB0BAA0AA909A8085B
:10053B00C312014860030205E1AC34AD35AE36AFF2
:10054B0037120184056B0000001F05850000002099
:10055B0005A00000002105B500000022000005D019
:10056B00E5232527F527E5223526F526E521352533
:10057B00F525E5203524F524804BC3E5239527F598
:10058B0027E5229526F526E5219525F525E52095E8
:10059B0024F5248030AF27AE26AD25AC24AB23AA9F
:1005AB0022A921A8201200F98013AB27AA26A9257E
:1005BB00A824AF23AE22AD21AC201207C38F278E08
:1005CB00268D258C24E4F537F536F535F534F50B0A
:1005DB00F50AF509F508AF27AE26AD25AC241202B6
:1005EB008CE47F28FEFDFCAB3BAA3AA939A838C3A3
:0905FB00120148600302047E2293
:10060400783C7C007D007BFF7A0879647E007F045F
:100614001200D3E4F52BF52AF529F528E47F04FE2E
:10062400FDFCAB2BAA2AA929A828C3120148400320
:10063400020736743C252BF8E6F5805580FFE66FFB
:10064400700302071A7F0A7E00120842743C252BAD
:10065400F8E6FF55806F700302070EAF80EF1201BA
:100664005E06E17706ED7B06F87D06AB7E0699B75C
:10067400069FBB06A5BD06C3BE06B1D706B7DB06FB
:10068400BDDD06DBDE06C9E706CFEB06D5ED0704C4
:10069400EE0000070EE47533018051E475330280E7
:1006A4004BE47533038045E4752F1F8057E475339D
:1006B400048039E47533058033E4753306802DE412
:1006C400752F20803FE47533078021E4753308805B
:1006D4001BE47533098015E4752F218027E4753BED
:1006E40028F53AF539F5388021E4F533F532F5315A
:1006F400F5308016E4750B1EF50AF509F508800A35
:10070400E4752F22F52EF52DF52C743C252BF8E6F7
:10071400FF5580B507F4E4FAF9F8E52B2401F52B2D
:10072400EA352AF52AE93529F529E83528F5280294
:0207340006209D
:0107360022A0
:08028C008F3F8E3E8D3D8C3C3E
:100294008F438E428D418C407F3F7E427D0F7C0098
:1002A400AB3FAA3EA93DA83CD31201485008AD3D3E
:1002B400AC3CEC33502D754600754706740C25474D
:1002C400F8E6F5A0851F9012083E120838E5471598
:1002D4004770021546D3E5479400E5466480948050
:1002E40050DA227F3F7E427D0F7C00AB3FAA3EA9BD
:1002F4003DA83CD3120148400302046AAC3CEC33F1
:10030400500302046AE47F09FEFDFCA83CD31201F9
:1003140048500FAC3CEC334009754400754501026C
:100324000402E47F63FEFDFCAB3FAA3EA93DA83C6A
:10033400D31201485017E47F0AFEFDFCA83CC31207
:1003440001484009754400754502020402E47FE750
:100354007E03FDFCAB3FAA3EA93DA83CD312014855
:100364005017E47F64FEFDFCA83CC3120148400919
:10037400754400754503020402E47F0F7E27FDFCEB
:10038400AB3FAA3EA93DA83CD31201485017E47FD5
:10039400E87E03FDFCA83CC31201484008754400F4
:1003A40075450480597F9F7E867D017C00AB3FAA02
:1003B4003EA93DA83CD31201485017E47F107E2784
:1003C400FDFCA83CC312014840087544007545056E
:1003D400802C7F3F7E427D0F7C00AB3FAA3EA93D2F
:1003E400A83CD312014850167FA07E867D017C0074
:1003F400A83CC3120148400675440075450675467D
:1004040000754706C374069545FFE49544FED3E59D
:10041400479FEE6480F8E5466480984049740C2553
:1004240047F8E6F5A0E47B0AFAF9F8AF3FAE3EAD33
:100434003DAC3C1207C374132BF8E6F590AF3FAE06
:100444003EAD3DAC3CE47B0AFAF9F81207C38F3F9A
:100454008E3E8D3D8C3C12083E120838E547154708
:0604640070021546809EA7
:01046A00226F
:0A083800851E90850CA07F017E0054
:10084200C3E5499FE5489E5018E4FCFD0DBD00013B
:100852000CED647B4C70F50549E54970E305488071
:01086200DFB6
:010863002272
:1007430002046BE493A3F8E493A34003F68001F25D
:1007530008DFF48029E493A3F85407240CC8C333B7
:10076300C4540F4420C8834004F456800146F6DF86
:10077300E4800B0102040810204080900807E47E07
:10078300019360BCA3FF543F30E509541FFEE4937B
:10079300A360010ECF54C025E060A840B8E493A342
:1007A300FAE493A3F8E493A3C8C582C8CAC583CA6D
:1007B300F0A3C8C582C8CAC583CADFE9DEE780BE25
:0108370000C0
:10000300E709F608DFFA8046E709F208DFFA803EDF
:1000130088828C83E709F0A3DFFA8032E309F608CC
:10002300DFFA8078E309F208DFFA807088828C8334
:10003300E309F0A3DFFA806489828A83E0A3F608E8
:10004300DFFA805889828A83E0A3F208DFFA804CC2
:1000530080D280FA80C680D4806980F28033801099
:1000630080A680EA809A80A880DA80E280CA803302
:1000730089828A83ECFAE493A3C8C582C8CCC5837A
:10008300CCF0A3C8C582C8CCC583CCDFE9DEE7804A
:100093000D89828A83E493A3F608DFF9ECFAA9F0C9
:1000A300EDFB2289828A83ECFAE0A3C8C582C8CC1F
:1000B300C583CCF0A3C8C582C8CCC583CCDFEADE38
:1000C300E880DB89828A83E493A3F208DFF980CC9A
:1000D30088F0EF60010E4E60C388F0ED2402B40493
:1000E3000050B9F582EB2402B4040050AF2323453A
:0600F3008223900053730C
:1000F900E88FF0A4CC8BF0A42CFCE98EF0A42CFCA6
:100109008AF0EDA42CFCEA8EF0A4CDA8F08BF0A423
:100119002DCC3825F0FDE98FF0A42CCD35F0FCEB82
:100129008EF0A4FEA9F0EB8FF0A4CFC5F02ECD3947
:0F013900FEE43CFCEAA42DCE35F0FDE43CFC22B4
:1007C300C2D5E830E70FB2D5E4C39BFBE49AFAE461
:1007D30099F9E498F8EC30E717B2D51207F912014A
:1007E300FAE4C39BFBE49AFAE499F9E498F88003EA
:1007F3001201FA30D50DE4C39FFFE49EFEE49DFD94
:04080300E49CFC2253
:10014800EB9FF5F0EA9E42F0E99D42F0EC6480C82E
:0601580064809845F022CE
:10015E00D083D082F8E4937012740193700DA3A330
:10016E0093F8740193F5828883E473740293686044
:06017E00EFA3A3A380DF44
:10018400D083D082E4937012740193700DA3A3936F
:10019400F8740193F5828883E4737402936C70128B
:1001A4007403936D700C7404936E70067405936FEE
:0A01B40060DDA3A3A3A3A3A380CAE8
:1001BE0075F008758200EF2FFFEE33FECD33CDCCF8
:1001CE0033CCC58233C5829BED9AEC99E58298407B
:1001DE000CF582EE9BFEED9AFDEC99FC0FD5F0D658
:1001EE00E4CEFBE4CDFAE4CCF9A88222B800C1B982
:1001FE000059BA002DEC8BF084CFCECDFCE5F0CBC0
:10020E00F97818EF2FFFEE33FEED33FDEC33FCEBF8
:10021E0033FB10D703994004EB99FB0FD8E5E4F9B3
:10022E00FA227818EF2FFFEE33FEED33FDEC33FCA0
:10023E00C933C910D7059BE99A4007EC9BFCE99A94
:10024E00F90FD8E0E4C9FAE4CCFB2275F010EF2FD9
:10025E00FFEE33FEED33FDCC33CCC833C810D707D9
:10026E009BEC9AE899400AED9BFDEC9AFCE899F814
:0E027E000FD5F0DAE4CDFBE4CCFAE4C8F922A7
:00000001FF
